{
  "_format": "hh-sol-artifact-1",
  "contractName": "WavePortal",
  "sourceName": "contracts/WavePortals.sol",
  "abi": [
    {
      "inputs": [],
      "stateMutability": "nonpayable",
      "type": "constructor"
    },
    {
      "anonymous": false,
      "inputs": [
        {
          "indexed": true,
          "internalType": "address",
          "name": "from",
          "type": "address"
        },
        {
          "indexed": false,
          "internalType": "uint256",
          "name": "timestamp",
          "type": "uint256"
        },
        {
          "indexed": false,
          "internalType": "string",
          "name": "message",
          "type": "string"
        }
      ],
      "name": "NewHug",
      "type": "event"
    },
    {
      "anonymous": false,
      "inputs": [
        {
          "indexed": true,
          "internalType": "address",
          "name": "from",
          "type": "address"
        },
        {
          "indexed": false,
          "internalType": "uint256",
          "name": "timestamp",
          "type": "uint256"
        }
      ],
      "name": "NewWave",
      "type": "event"
    },
    {
      "inputs": [],
      "name": "getAllHugs",
      "outputs": [
        {
          "components": [
            {
              "internalType": "address",
              "name": "hugger",
              "type": "address"
            },
            {
              "internalType": "string",
              "name": "message",
              "type": "string"
            },
            {
              "internalType": "uint256",
              "name": "timestamp",
              "type": "uint256"
            }
          ],
          "internalType": "struct WavePortal.Hug[]",
          "name": "",
          "type": "tuple[]"
        }
      ],
      "stateMutability": "view",
      "type": "function"
    },
    {
      "inputs": [],
      "name": "getAllSendersAddress",
      "outputs": [
        {
          "internalType": "address[]",
          "name": "",
          "type": "address[]"
        }
      ],
      "stateMutability": "view",
      "type": "function"
    },
    {
      "inputs": [],
      "name": "getAllWaves",
      "outputs": [
        {
          "components": [
            {
              "internalType": "address",
              "name": "waver",
              "type": "address"
            },
            {
              "internalType": "uint256",
              "name": "timestamp",
              "type": "uint256"
            }
          ],
          "internalType": "struct WavePortal.Wave[]",
          "name": "",
          "type": "tuple[]"
        }
      ],
      "stateMutability": "view",
      "type": "function"
    },
    {
      "inputs": [],
      "name": "getTotalHugs",
      "outputs": [
        {
          "internalType": "uint256",
          "name": "",
          "type": "uint256"
        }
      ],
      "stateMutability": "view",
      "type": "function"
    },
    {
      "inputs": [],
      "name": "getTotalWaves",
      "outputs": [
        {
          "internalType": "uint256",
          "name": "",
          "type": "uint256"
        }
      ],
      "stateMutability": "view",
      "type": "function"
    },
    {
      "inputs": [
        {
          "internalType": "string",
          "name": "_message",
          "type": "string"
        }
      ],
      "name": "hug",
      "outputs": [],
      "stateMutability": "nonpayable",
      "type": "function"
    },
    {
      "inputs": [],
      "name": "senderAddress",
      "outputs": [],
      "stateMutability": "nonpayable",
      "type": "function"
    },
    {
      "inputs": [
        {
          "internalType": "uint256",
          "name": "",
          "type": "uint256"
        }
      ],
      "name": "userAddresses",
      "outputs": [
        {
          "internalType": "address",
          "name": "",
          "type": "address"
        }
      ],
      "stateMutability": "view",
      "type": "function"
    },
    {
      "inputs": [],
      "name": "wave",
      "outputs": [],
      "stateMutability": "nonpayable",
      "type": "function"
    }
  ],
  "bytecode": "0x60806040523480156200001157600080fd5b506200005d6040518060400160405280601981526020017f48656c6c6f2057656c636f6d6520746f20536f6c6964697479000000000000008152506200006360201b620008b11760201c565b620001f7565b62000103816040516024016200007a919062000170565b6040516020818303038152906040527f41304fac000000000000000000000000000000000000000000000000000000007bffffffffffffffffffffffffffffffffffffffffffffffffffffffff19166020820180517bffffffffffffffffffffffffffffffffffffffffffffffffffffffff83818316178352505050506200010660201b60201c565b50565b60008151905060006a636f6e736f6c652e6c6f679050602083016000808483855afa5050505050565b60006200013c8262000194565b6200014881856200019f565b93506200015a818560208601620001b0565b6200016581620001e6565b840191505092915050565b600060208201905081810360008301526200018c81846200012f565b905092915050565b600081519050919050565b600082825260208201905092915050565b60005b83811015620001d0578082015181840152602081019050620001b3565b83811115620001e0576000848401525b50505050565b6000601f19601f8301169050919050565b61145980620002076000396000f3fe608060405234801561001057600080fd5b50600436106100935760003560e01c80636fe15b44116100665780636fe15b441461010e578063933026ca146101185780639a2cdc0814610136578063a46f599214610154578063bd43a9081461017057610093565b806342220881146100985780634fc84791146100b6578063502c9bd5146100c0578063677f0c21146100f0575b600080fd5b6100a061018e565b6040516100ad91906110be565b60405180910390f35b6100be6101d9565b005b6100da60048036038101906100d59190610cab565b61027c565b6040516100e79190610f76565b60405180910390f35b6100f86102bb565b6040516101059190610fb3565b60405180910390f35b61011661040c565b005b61012061055d565b60405161012d9190610f91565b60405180910390f35b61013e61062f565b60405161014b91906110be565b60405180910390f35b61016e60048036038101906101699190610c6a565b61067a565b005b6101786107f2565b6040516101859190610fd5565b60405180910390f35b60006101d16040518060400160405280601681526020017f5765206861766520256420746f74616c2068756773210000000000000000000081525060015461094a565b600154905090565b6002339080600181540180825580915050600190039060005260206000200160009091909190916101000a81548173ffffffffffffffffffffffffffffffffffffffff021916908373ffffffffffffffffffffffffffffffffffffffff16021790555061027a6040518060400160405280601e81526020017f73656e646572206164647265737320686173206265656e2061646465642100008152506108b1565b565b6002818154811061028c57600080fd5b906000526020600020016000915054906101000a900473ffffffffffffffffffffffffffffffffffffffff1681565b60606004805480602002602001604051908101604052809291908181526020016000905b8282101561040357838290600052602060002090600302016040518060600160405290816000820160009054906101000a900473ffffffffffffffffffffffffffffffffffffffff1673ffffffffffffffffffffffffffffffffffffffff1673ffffffffffffffffffffffffffffffffffffffff1681526020016001820180546103689061130b565b80601f01602080910402602001604051908101604052809291908181526020018280546103949061130b565b80156103e15780601f106103b6576101008083540402835291602001916103e1565b820191906000526020600020905b8154815290600101906020018083116103c457829003601f168201915b50505050508152602001600282015481525050815260200190600101906102df565b50505050905090565b600160008082825461041e9190611237565b925050819055506104646040518060400160405280600881526020017f2573207761766564000000000000000000000000000000000000000000000000815250336109e6565b600360405180604001604052803373ffffffffffffffffffffffffffffffffffffffff16815260200142815250908060018154018082558091505060019003906000526020600020906002020160009091909190915060008201518160000160006101000a81548173ffffffffffffffffffffffffffffffffffffffff021916908373ffffffffffffffffffffffffffffffffffffffff1602179055506020820151816001015550503373ffffffffffffffffffffffffffffffffffffffff167fd4039eae27a8bdb2161befb9f8627b7c1427c2515e32d699b7dc252416e719cd4260405161055391906110be565b60405180910390a2565b60606105a36040518060400160405280601a81526020017f576520686176652025642073656e64657273206164647265737300000000000081525060028054905061094a565b600280548060200260200160405190810160405280929190818152602001828054801561062557602002820191906000526020600020905b8160009054906101000a900473ffffffffffffffffffffffffffffffffffffffff1673ffffffffffffffffffffffffffffffffffffffff16815260200190600101908083116105db575b5050505050905090565b60006106726040518060400160405280601781526020017f5765206861766520256420746f74616c2077617665732100000000000000000081525060005461094a565b600054905090565b600180600082825461068c9190611237565b925050819055506106d36040518060400160405280601781526020017f25732068756767656420772f206d6573736167652025730000000000000000008152503383610a82565b600460405180606001604052803373ffffffffffffffffffffffffffffffffffffffff16815260200183815260200142815250908060018154018082558091505060019003906000526020600020906003020160009091909190915060008201518160000160006101000a81548173ffffffffffffffffffffffffffffffffffffffff021916908373ffffffffffffffffffffffffffffffffffffffff1602179055506020820151816001019080519060200190610792929190610b4a565b506040820151816002015550503373ffffffffffffffffffffffffffffffffffffffff167fa5963c21658af7cb8ea8def690d3353743bf24a79c848dc45252fcb66042f4b142836040516107e79291906110d9565b60405180910390a250565b60606003805480602002602001604051908101604052809291908181526020016000905b828210156108a857838290600052602060002090600202016040518060400160405290816000820160009054906101000a900473ffffffffffffffffffffffffffffffffffffffff1673ffffffffffffffffffffffffffffffffffffffff1673ffffffffffffffffffffffffffffffffffffffff16815260200160018201548152505081526020019060010190610816565b50505050905090565b610947816040516024016108c59190610ff7565b6040516020818303038152906040527f41304fac000000000000000000000000000000000000000000000000000000007bffffffffffffffffffffffffffffffffffffffffffffffffffffffff19166020820180517bffffffffffffffffffffffffffffffffffffffffffffffffffffffff8381831617835250505050610b21565b50565b6109e2828260405160240161096092919061108e565b6040516020818303038152906040527f9710a9d0000000000000000000000000000000000000000000000000000000007bffffffffffffffffffffffffffffffffffffffffffffffffffffffff19166020820180517bffffffffffffffffffffffffffffffffffffffffffffffffffffffff8381831617835250505050610b21565b5050565b610a7e82826040516024016109fc929190611019565b6040516020818303038152906040527f319af333000000000000000000000000000000000000000000000000000000007bffffffffffffffffffffffffffffffffffffffffffffffffffffffff19166020820180517bffffffffffffffffffffffffffffffffffffffffffffffffffffffff8381831617835250505050610b21565b5050565b610b1c838383604051602401610a9a93929190611049565b6040516020818303038152906040527fe0e9ad4f000000000000000000000000000000000000000000000000000000007bffffffffffffffffffffffffffffffffffffffffffffffffffffffff19166020820180517bffffffffffffffffffffffffffffffffffffffffffffffffffffffff8381831617835250505050610b21565b505050565b60008151905060006a636f6e736f6c652e6c6f679050602083016000808483855afa5050505050565b828054610b569061130b565b90600052602060002090601f016020900481019282610b785760008555610bbf565b82601f10610b9157805160ff1916838001178555610bbf565b82800160010185558215610bbf579182015b82811115610bbe578251825591602001919060010190610ba3565b5b509050610bcc9190610bd0565b5090565b5b80821115610be9576000816000905550600101610bd1565b5090565b6000610c00610bfb8461112e565b611109565b905082815260208101848484011115610c1857600080fd5b610c238482856112c9565b509392505050565b600082601f830112610c3c57600080fd5b8135610c4c848260208601610bed565b91505092915050565b600081359050610c648161140c565b92915050565b600060208284031215610c7c57600080fd5b600082013567ffffffffffffffff811115610c9657600080fd5b610ca284828501610c2b565b91505092915050565b600060208284031215610cbd57600080fd5b6000610ccb84828501610c55565b91505092915050565b6000610ce08383610d18565b60208301905092915050565b6000610cf88383610ed9565b905092915050565b6000610d0c8383610f29565b60408301905092915050565b610d218161128d565b82525050565b610d308161128d565b82525050565b6000610d418261118f565b610d4b81856111e2565b9350610d568361115f565b8060005b83811015610d87578151610d6e8882610cd4565b9750610d79836111bb565b925050600181019050610d5a565b5085935050505092915050565b6000610d9f8261119a565b610da981856111f3565b935083602082028501610dbb8561116f565b8060005b85811015610df75784840389528151610dd88582610cec565b9450610de3836111c8565b925060208a01995050600181019050610dbf565b50829750879550505050505092915050565b6000610e14826111a5565b610e1e8185611204565b9350610e298361117f565b8060005b83811015610e5a578151610e418882610d00565b9750610e4c836111d5565b925050600181019050610e2d565b5085935050505092915050565b6000610e72826111b0565b610e7c8185611215565b9350610e8c8185602086016112d8565b610e95816113fb565b840191505092915050565b6000610eab826111b0565b610eb58185611226565b9350610ec58185602086016112d8565b610ece816113fb565b840191505092915050565b6000606083016000830151610ef16000860182610d18565b5060208301518482036020860152610f098282610e67565b9150506040830151610f1e6040860182610f58565b508091505092915050565b604082016000820151610f3f6000850182610d18565b506020820151610f526020850182610f58565b50505050565b610f61816112bf565b82525050565b610f70816112bf565b82525050565b6000602082019050610f8b6000830184610d27565b92915050565b60006020820190508181036000830152610fab8184610d36565b905092915050565b60006020820190508181036000830152610fcd8184610d94565b905092915050565b60006020820190508181036000830152610fef8184610e09565b905092915050565b600060208201905081810360008301526110118184610ea0565b905092915050565b600060408201905081810360008301526110338185610ea0565b90506110426020830184610d27565b9392505050565b600060608201905081810360008301526110638186610ea0565b90506110726020830185610d27565b81810360408301526110848184610ea0565b9050949350505050565b600060408201905081810360008301526110a88185610ea0565b90506110b76020830184610f67565b9392505050565b60006020820190506110d36000830184610f67565b92915050565b60006040820190506110ee6000830185610f67565b81810360208301526111008184610ea0565b90509392505050565b6000611113611124565b905061111f828261133d565b919050565b6000604051905090565b600067ffffffffffffffff821115611149576111486113cc565b5b611152826113fb565b9050602081019050919050565b6000819050602082019050919050565b6000819050602082019050919050565b6000819050602082019050919050565b600081519050919050565b600081519050919050565b600081519050919050565b600081519050919050565b6000602082019050919050565b6000602082019050919050565b6000602082019050919050565b600082825260208201905092915050565b600082825260208201905092915050565b600082825260208201905092915050565b600082825260208201905092915050565b600082825260208201905092915050565b6000611242826112bf565b915061124d836112bf565b9250827fffffffffffffffffffffffffffffffffffffffffffffffffffffffffffffffff038211156112825761128161136e565b5b828201905092915050565b60006112988261129f565b9050919050565b600073ffffffffffffffffffffffffffffffffffffffff82169050919050565b6000819050919050565b82818337600083830152505050565b60005b838110156112f65780820151818401526020810190506112db565b83811115611305576000848401525b50505050565b6000600282049050600182168061132357607f821691505b602082108114156113375761133661139d565b5b50919050565b611346826113fb565b810181811067ffffffffffffffff82111715611365576113646113cc565b5b80604052505050565b7f4e487b7100000000000000000000000000000000000000000000000000000000600052601160045260246000fd5b7f4e487b7100000000000000000000000000000000000000000000000000000000600052602260045260246000fd5b7f4e487b7100000000000000000000000000000000000000000000000000000000600052604160045260246000fd5b6000601f19601f8301169050919050565b611415816112bf565b811461142057600080fd5b5056fea2646970667358221220b47f5ebf9f7c809ddd32e9fbba56f99428e02c5729a839eaa1f96f5a2a0e0dc964736f6c63430008040033",
  "linkReferences": {},
  "deployedLinkReferences": {}
}