{
  "_format": "hh-sol-artifact-1",
  "contractName": "WavePortal",
  "sourceName": "contracts/WavePortals.sol",
  "abi": [
    {
      "inputs": [],
      "stateMutability": "nonpayable",
      "type": "constructor"
    },
    {
      "inputs": [],
      "name": "getAllSendersAddress",
      "outputs": [
        {
          "internalType": "address[]",
          "name": "",
          "type": "address[]"
        }
      ],
      "stateMutability": "view",
      "type": "function"
    },
    {
      "inputs": [],
      "name": "getTotalWaves",
      "outputs": [
        {
          "internalType": "uint256",
          "name": "",
          "type": "uint256"
        }
      ],
      "stateMutability": "view",
      "type": "function"
    },
    {
      "inputs": [],
      "name": "senderAddress",
      "outputs": [],
      "stateMutability": "nonpayable",
      "type": "function"
    },
    {
      "inputs": [
        {
          "internalType": "uint256",
          "name": "",
          "type": "uint256"
        }
      ],
      "name": "userAddresses",
      "outputs": [
        {
          "internalType": "address",
          "name": "",
          "type": "address"
        }
      ],
      "stateMutability": "view",
      "type": "function"
    },
    {
      "inputs": [],
      "name": "wave",
      "outputs": [],
      "stateMutability": "nonpayable",
      "type": "function"
    }
  ],
  "bytecode": "0x608060405234801561001057600080fd5b506100596040518060400160405280601981526020017f48656c6c6f2057656c636f6d6520746f20536f6c69646974790000000000000081525061005e60201b6103351760201c565b6101e1565b6100fa81604051602401610072919061015f565b6040516020818303038152906040527f41304fac000000000000000000000000000000000000000000000000000000007bffffffffffffffffffffffffffffffffffffffffffffffffffffffff19166020820180517bffffffffffffffffffffffffffffffffffffffffffffffffffffffff83818316178352505050506100fd60201b60201c565b50565b60008151905060006a636f6e736f6c652e6c6f679050602083016000808483855afa5050505050565b600061013182610181565b61013b818561018c565b935061014b81856020860161019d565b610154816101d0565b840191505092915050565b600060208201905081810360008301526101798184610126565b905092915050565b600081519050919050565b600082825260208201905092915050565b60005b838110156101bb5780820151818401526020810190506101a0565b838111156101ca576000848401525b50505050565b6000601f19601f8301169050919050565b6108ca806101f06000396000f3fe608060405234801561001057600080fd5b50600436106100575760003560e01c80634fc847911461005c578063502c9bd5146100665780636fe15b4414610096578063933026ca146100a05780639a2cdc08146100be575b600080fd5b6100646100dc565b005b610080600480360381019061007b9190610544565b61017f565b60405161008d9190610649565b60405180910390f35b61009e6101be565b005b6100a8610218565b6040516100b59190610664565b60405180910390f35b6100c66102ea565b6040516100d39190610708565b60405180910390f35b6001339080600181540180825580915050600190039060005260206000200160009091909190916101000a81548173ffffffffffffffffffffffffffffffffffffffff021916908373ffffffffffffffffffffffffffffffffffffffff16021790555061017d6040518060400160405280601e81526020017f73656e646572206164647265737320686173206265656e206164646564210000815250610335565b565b6001818154811061018f57600080fd5b906000526020600020016000915054906101000a900473ffffffffffffffffffffffffffffffffffffffff1681565b60016000808282546101d09190610778565b925050819055506102166040518060400160405280600d81526020017f2573206861732077617665642100000000000000000000000000000000000000815250336103ce565b565b606061025e6040518060400160405280601a81526020017f576520686176652025642073656e64657273206164647265737300000000000081525060018054905061046a565b60018054806020026020016040519081016040528092919081815260200182805480156102e057602002820191906000526020600020905b8160009054906101000a900473ffffffffffffffffffffffffffffffffffffffff1673ffffffffffffffffffffffffffffffffffffffff1681526020019060010190808311610296575b5050505050905090565b600061032d6040518060400160405280601781526020017f5765206861766520256420746f74616c2077617665732100000000000000000081525060005461046a565b600054905090565b6103cb816040516024016103499190610686565b6040516020818303038152906040527f41304fac000000000000000000000000000000000000000000000000000000007bffffffffffffffffffffffffffffffffffffffffffffffffffffffff19166020820180517bffffffffffffffffffffffffffffffffffffffffffffffffffffffff8381831617835250505050610506565b50565b61046682826040516024016103e49291906106a8565b6040516020818303038152906040527f319af333000000000000000000000000000000000000000000000000000000007bffffffffffffffffffffffffffffffffffffffffffffffffffffffff19166020820180517bffffffffffffffffffffffffffffffffffffffffffffffffffffffff8381831617835250505050610506565b5050565b61050282826040516024016104809291906106d8565b6040516020818303038152906040527f9710a9d0000000000000000000000000000000000000000000000000000000007bffffffffffffffffffffffffffffffffffffffffffffffffffffffff19166020820180517bffffffffffffffffffffffffffffffffffffffffffffffffffffffff8381831617835250505050610506565b5050565b60008151905060006a636f6e736f6c652e6c6f679050602083016000808483855afa5050505050565b60008135905061053e8161087d565b92915050565b60006020828403121561055657600080fd5b60006105648482850161052f565b91505092915050565b60006105798383610585565b60208301905092915050565b61058e816107ce565b82525050565b61059d816107ce565b82525050565b60006105ae82610733565b6105b88185610756565b93506105c383610723565b8060005b838110156105f45781516105db888261056d565b97506105e683610749565b9250506001810190506105c7565b5085935050505092915050565b600061060c8261073e565b6106168185610767565b935061062681856020860161080a565b61062f8161086c565b840191505092915050565b61064381610800565b82525050565b600060208201905061065e6000830184610594565b92915050565b6000602082019050818103600083015261067e81846105a3565b905092915050565b600060208201905081810360008301526106a08184610601565b905092915050565b600060408201905081810360008301526106c28185610601565b90506106d16020830184610594565b9392505050565b600060408201905081810360008301526106f28185610601565b9050610701602083018461063a565b9392505050565b600060208201905061071d600083018461063a565b92915050565b6000819050602082019050919050565b600081519050919050565b600081519050919050565b6000602082019050919050565b600082825260208201905092915050565b600082825260208201905092915050565b600061078382610800565b915061078e83610800565b9250827fffffffffffffffffffffffffffffffffffffffffffffffffffffffffffffffff038211156107c3576107c261083d565b5b828201905092915050565b60006107d9826107e0565b9050919050565b600073ffffffffffffffffffffffffffffffffffffffff82169050919050565b6000819050919050565b60005b8381101561082857808201518184015260208101905061080d565b83811115610837576000848401525b50505050565b7f4e487b7100000000000000000000000000000000000000000000000000000000600052601160045260246000fd5b6000601f19601f8301169050919050565b61088681610800565b811461089157600080fd5b5056fea2646970667358221220fcefb2af6a25ccc95ccd857a93472f55f8efae131b4455c434a265fd8ff2eae464736f6c63430008040033",
  "linkReferences": {},
  "deployedLinkReferences": {}
}