{
  "_format": "hh-sol-artifact-1",
  "contractName": "WavePortal",
  "sourceName": "contracts/WavePortals.sol",
  "abi": [
    {
      "inputs": [],
      "stateMutability": "payable",
      "type": "constructor"
    },
    {
      "anonymous": false,
      "inputs": [
        {
          "indexed": true,
          "internalType": "address",
          "name": "from",
          "type": "address"
        },
        {
          "indexed": false,
          "internalType": "uint256",
          "name": "timestamp",
          "type": "uint256"
        },
        {
          "indexed": false,
          "internalType": "string",
          "name": "message",
          "type": "string"
        }
      ],
      "name": "NewHug",
      "type": "event"
    },
    {
      "anonymous": false,
      "inputs": [
        {
          "indexed": true,
          "internalType": "address",
          "name": "from",
          "type": "address"
        },
        {
          "indexed": false,
          "internalType": "uint256",
          "name": "timestamp",
          "type": "uint256"
        }
      ],
      "name": "NewWave",
      "type": "event"
    },
    {
      "inputs": [],
      "name": "getAllHugs",
      "outputs": [
        {
          "components": [
            {
              "internalType": "address",
              "name": "hugger",
              "type": "address"
            },
            {
              "internalType": "string",
              "name": "message",
              "type": "string"
            },
            {
              "internalType": "uint256",
              "name": "timestamp",
              "type": "uint256"
            }
          ],
          "internalType": "struct WavePortal.Hug[]",
          "name": "",
          "type": "tuple[]"
        }
      ],
      "stateMutability": "view",
      "type": "function"
    },
    {
      "inputs": [],
      "name": "getAllSendersAddress",
      "outputs": [
        {
          "internalType": "address[]",
          "name": "",
          "type": "address[]"
        }
      ],
      "stateMutability": "view",
      "type": "function"
    },
    {
      "inputs": [],
      "name": "getAllWaves",
      "outputs": [
        {
          "components": [
            {
              "internalType": "address",
              "name": "waver",
              "type": "address"
            },
            {
              "internalType": "uint256",
              "name": "timestamp",
              "type": "uint256"
            }
          ],
          "internalType": "struct WavePortal.Wave[]",
          "name": "",
          "type": "tuple[]"
        }
      ],
      "stateMutability": "view",
      "type": "function"
    },
    {
      "inputs": [],
      "name": "getTotalHugs",
      "outputs": [
        {
          "internalType": "uint256",
          "name": "",
          "type": "uint256"
        }
      ],
      "stateMutability": "view",
      "type": "function"
    },
    {
      "inputs": [],
      "name": "getTotalWaves",
      "outputs": [
        {
          "internalType": "uint256",
          "name": "",
          "type": "uint256"
        }
      ],
      "stateMutability": "view",
      "type": "function"
    },
    {
      "inputs": [
        {
          "internalType": "string",
          "name": "_message",
          "type": "string"
        }
      ],
      "name": "hug",
      "outputs": [],
      "stateMutability": "nonpayable",
      "type": "function"
    },
    {
      "inputs": [
        {
          "internalType": "address",
          "name": "",
          "type": "address"
        }
      ],
      "name": "lastSentHugAt",
      "outputs": [
        {
          "internalType": "uint256",
          "name": "",
          "type": "uint256"
        }
      ],
      "stateMutability": "view",
      "type": "function"
    },
    {
      "inputs": [
        {
          "internalType": "address",
          "name": "",
          "type": "address"
        }
      ],
      "name": "lastWavedAt",
      "outputs": [
        {
          "internalType": "uint256",
          "name": "",
          "type": "uint256"
        }
      ],
      "stateMutability": "view",
      "type": "function"
    },
    {
      "inputs": [],
      "name": "senderAddress",
      "outputs": [],
      "stateMutability": "nonpayable",
      "type": "function"
    },
    {
      "inputs": [
        {
          "internalType": "uint256",
          "name": "",
          "type": "uint256"
        }
      ],
      "name": "userAddresses",
      "outputs": [
        {
          "internalType": "address",
          "name": "",
          "type": "address"
        }
      ],
      "stateMutability": "view",
      "type": "function"
    },
    {
      "inputs": [],
      "name": "wave",
      "outputs": [],
      "stateMutability": "nonpayable",
      "type": "function"
    }
  ],
  "bytecode": "0x60806040526200004f6040518060400160405280601981526020017f57652068617665206265656e20636f6e737472756374656421000000000000008152506200007760201b62000cab1760201c565b606444426200005f9190620001c4565b6200006b919062000261565b60058190555062000308565b62000117816040516024016200008e919062000184565b6040516020818303038152906040527f41304fac000000000000000000000000000000000000000000000000000000007bffffffffffffffffffffffffffffffffffffffffffffffffffffffff19166020820180517bffffffffffffffffffffffffffffffffffffffffffffffffffffffff83818316178352505050506200011a60201b60201c565b50565b60008151905060006a636f6e736f6c652e6c6f679050602083016000808483855afa5050505050565b60006200015082620001a8565b6200015c8185620001b3565b93506200016e8185602086016200022b565b6200017981620002f7565b840191505092915050565b60006020820190508181036000830152620001a0818462000143565b905092915050565b600081519050919050565b600082825260208201905092915050565b6000620001d18262000221565b9150620001de8362000221565b9250827fffffffffffffffffffffffffffffffffffffffffffffffffffffffffffffffff0382111562000216576200021562000299565b5b828201905092915050565b6000819050919050565b60005b838110156200024b5780820151818401526020810190506200022e565b838111156200025b576000848401525b50505050565b60006200026e8262000221565b91506200027b8362000221565b9250826200028e576200028d620002c8565b5b828206905092915050565b7f4e487b7100000000000000000000000000000000000000000000000000000000600052601160045260246000fd5b7f4e487b7100000000000000000000000000000000000000000000000000000000600052601260045260246000fd5b6000601f19601f8301169050919050565b611b9680620003186000396000f3fe608060405234801561001057600080fd5b50600436106100a95760003560e01c8063933026ca11610071578063933026ca1461012e578063990ae4a91461014c5780639a2cdc081461017c578063a42a46631461019a578063a46f5992146101ca578063bd43a908146101e6576100a9565b806342220881146100ae5780634fc84791146100cc578063502c9bd5146100d6578063677f0c21146101065780636fe15b4414610124575b600080fd5b6100b6610204565b6040516100c3919061163a565b60405180910390f35b6100d461024f565b005b6100f060048036038101906100eb91906110e3565b6102f2565b6040516100fd9190611472565b60405180910390f35b61010e610331565b60405161011b91906114af565b60405180910390f35b61012c610482565b005b6101366106a4565b604051610143919061148d565b60405180910390f35b61016660048036038101906101619190611079565b610776565b604051610173919061163a565b60405180910390f35b61018461078e565b604051610191919061163a565b60405180910390f35b6101b460048036038101906101af9190611079565b6107d9565b6040516101c1919061163a565b60405180910390f35b6101e460048036038101906101df91906110a2565b6107f1565b005b6101ee610bec565b6040516101fb91906114d1565b60405180910390f35b60006102476040518060400160405280601681526020017f5765206861766520256420746f74616c20687567732100000000000000000000815250600154610d44565b600154905090565b6002339080600181540180825580915050600190039060005260206000200160009091909190916101000a81548173ffffffffffffffffffffffffffffffffffffffff021916908373ffffffffffffffffffffffffffffffffffffffff1602179055506102f06040518060400160405280601e81526020017f73656e646572206164647265737320686173206265656e206164646564210000815250610cab565b565b6002818154811061030257600080fd5b906000526020600020016000915054906101000a900473ffffffffffffffffffffffffffffffffffffffff1681565b60606004805480602002602001604051908101604052809291908181526020016000905b8282101561047957838290600052602060002090600302016040518060600160405290816000820160009054906101000a900473ffffffffffffffffffffffffffffffffffffffff1673ffffffffffffffffffffffffffffffffffffffff1673ffffffffffffffffffffffffffffffffffffffff1681526020016001820180546103de90611892565b80601f016020809104026020016040519081016040528092919081815260200182805461040a90611892565b80156104575780601f1061042c57610100808354040283529160200191610457565b820191906000526020600020905b81548152906001019060200180831161043a57829003601f168201915b5050505050815260200160028201548152505081526020019060010190610355565b50505050905090565b600160008082825461049491906117be565b925050819055506104da6040518060400160405280600881526020017f257320776176656400000000000000000000000000000000000000000000000081525033610de0565b42601e600760003373ffffffffffffffffffffffffffffffffffffffff1673ffffffffffffffffffffffffffffffffffffffff1681526020019081526020016000205461052791906117be565b10610567576040517f08c379a000000000000000000000000000000000000000000000000000000000815260040161055e906115ba565b60405180910390fd5b42600760003373ffffffffffffffffffffffffffffffffffffffff1673ffffffffffffffffffffffffffffffffffffffff16815260200190815260200160002081905550600360405180604001604052803373ffffffffffffffffffffffffffffffffffffffff16815260200142815250908060018154018082558091505060019003906000526020600020906002020160009091909190915060008201518160000160006101000a81548173ffffffffffffffffffffffffffffffffffffffff021916908373ffffffffffffffffffffffffffffffffffffffff1602179055506020820151816001015550503373ffffffffffffffffffffffffffffffffffffffff167fd4039eae27a8bdb2161befb9f8627b7c1427c2515e32d699b7dc252416e719cd4260405161069a919061163a565b60405180910390a2565b60606106ea6040518060400160405280601a81526020017f576520686176652025642073656e646572732061646472657373000000000000815250600280549050610d44565b600280548060200260200160405190810160405280929190818152602001828054801561076c57602002820191906000526020600020905b8160009054906101000a900473ffffffffffffffffffffffffffffffffffffffff1673ffffffffffffffffffffffffffffffffffffffff1681526020019060010190808311610722575b5050505050905090565b60066020528060005260406000206000915090505481565b60006107d16040518060400160405280601781526020017f5765206861766520256420746f74616c20776176657321000000000000000000815250600054610d44565b600054905090565b60076020528060005260406000206000915090505481565b600180600082825461080391906117be565b9250508190555061084a6040518060400160405280601781526020017f25732068756767656420772f206d6573736167652025730000000000000000008152503383610e7c565b42601e600660003373ffffffffffffffffffffffffffffffffffffffff1673ffffffffffffffffffffffffffffffffffffffff1681526020019081526020016000205461089791906117be565b106108d7576040517f08c379a00000000000000000000000000000000000000000000000000000000081526004016108ce9061161a565b60405180910390fd5b42600660003373ffffffffffffffffffffffffffffffffffffffff1673ffffffffffffffffffffffffffffffffffffffff16815260200190815260200160002081905550600460405180606001604052803373ffffffffffffffffffffffffffffffffffffffff16815260200183815260200142815250908060018154018082558091505060019003906000526020600020906003020160009091909190915060008201518160000160006101000a81548173ffffffffffffffffffffffffffffffffffffffff021916908373ffffffffffffffffffffffffffffffffffffffff16021790555060208201518160010190805190602001906109da929190610f44565b50604082015181600201555050606460055444426109f891906117be565b610a0291906117be565b610a0c91906118f5565b600581905550610a536040518060400160405280601681526020017f52616e646f6d20232067656e6572617465643a20256400000000000000000000815250600554610d44565b603260055411610b9957610a9c6040518060400160405280600781526020017f257320776f6e210000000000000000000000000000000000000000000000000081525033610de0565b6000655af3107a4000905047811115610aea576040517f08c379a0000000000000000000000000000000000000000000000000000000008152600401610ae1906115da565b60405180910390fd5b60003373ffffffffffffffffffffffffffffffffffffffff1682604051610b109061145d565b60006040518083038185875af1925050503d8060008114610b4d576040519150601f19603f3d011682016040523d82523d6000602084013e610b52565b606091505b5050905080610b96576040517f08c379a0000000000000000000000000000000000000000000000000000000008152600401610b8d906115fa565b60405180910390fd5b50505b3373ffffffffffffffffffffffffffffffffffffffff167fa5963c21658af7cb8ea8def690d3353743bf24a79c848dc45252fcb66042f4b14283604051610be1929190611655565b60405180910390a250565b60606003805480602002602001604051908101604052809291908181526020016000905b82821015610ca257838290600052602060002090600202016040518060400160405290816000820160009054906101000a900473ffffffffffffffffffffffffffffffffffffffff1673ffffffffffffffffffffffffffffffffffffffff1673ffffffffffffffffffffffffffffffffffffffff16815260200160018201548152505081526020019060010190610c10565b50505050905090565b610d4181604051602401610cbf91906114f3565b6040516020818303038152906040527f41304fac000000000000000000000000000000000000000000000000000000007bffffffffffffffffffffffffffffffffffffffffffffffffffffffff19166020820180517bffffffffffffffffffffffffffffffffffffffffffffffffffffffff8381831617835250505050610f1b565b50565b610ddc8282604051602401610d5a92919061158a565b6040516020818303038152906040527f9710a9d0000000000000000000000000000000000000000000000000000000007bffffffffffffffffffffffffffffffffffffffffffffffffffffffff19166020820180517bffffffffffffffffffffffffffffffffffffffffffffffffffffffff8381831617835250505050610f1b565b5050565b610e788282604051602401610df6929190611515565b6040516020818303038152906040527f319af333000000000000000000000000000000000000000000000000000000007bffffffffffffffffffffffffffffffffffffffffffffffffffffffff19166020820180517bffffffffffffffffffffffffffffffffffffffffffffffffffffffff8381831617835250505050610f1b565b5050565b610f16838383604051602401610e9493929190611545565b6040516020818303038152906040527fe0e9ad4f000000000000000000000000000000000000000000000000000000007bffffffffffffffffffffffffffffffffffffffffffffffffffffffff19166020820180517bffffffffffffffffffffffffffffffffffffffffffffffffffffffff8381831617835250505050610f1b565b505050565b60008151905060006a636f6e736f6c652e6c6f679050602083016000808483855afa5050505050565b828054610f5090611892565b90600052602060002090601f016020900481019282610f725760008555610fb9565b82601f10610f8b57805160ff1916838001178555610fb9565b82800160010185558215610fb9579182015b82811115610fb8578251825591602001919060010190610f9d565b5b509050610fc69190610fca565b5090565b5b80821115610fe3576000816000905550600101610fcb565b5090565b6000610ffa610ff5846116aa565b611685565b90508281526020810184848401111561101257600080fd5b61101d848285611850565b509392505050565b60008135905061103481611b32565b92915050565b600082601f83011261104b57600080fd5b813561105b848260208601610fe7565b91505092915050565b60008135905061107381611b49565b92915050565b60006020828403121561108b57600080fd5b600061109984828501611025565b91505092915050565b6000602082840312156110b457600080fd5b600082013567ffffffffffffffff8111156110ce57600080fd5b6110da8482850161103a565b91505092915050565b6000602082840312156110f557600080fd5b600061110384828501611064565b91505092915050565b60006111188383611150565b60208301905092915050565b600061113083836113c0565b905092915050565b60006111448383611410565b60408301905092915050565b61115981611814565b82525050565b61116881611814565b82525050565b60006111798261170b565b611183818561175e565b935061118e836116db565b8060005b838110156111bf5781516111a6888261110c565b97506111b183611737565b925050600181019050611192565b5085935050505092915050565b60006111d782611716565b6111e1818561176f565b9350836020820285016111f3856116eb565b8060005b8581101561122f57848403895281516112108582611124565b945061121b83611744565b925060208a019950506001810190506111f7565b50829750879550505050505092915050565b600061124c82611721565b6112568185611780565b9350611261836116fb565b8060005b838110156112925781516112798882611138565b975061128483611751565b925050600181019050611265565b5085935050505092915050565b60006112aa8261172c565b6112b4818561179c565b93506112c481856020860161185f565b6112cd816119e2565b840191505092915050565b60006112e38261172c565b6112ed81856117ad565b93506112fd81856020860161185f565b611306816119e2565b840191505092915050565b600061131e602f836117ad565b9150611329826119f3565b604082019050919050565b60006113416034836117ad565b915061134c82611a42565b604082019050919050565b60006113646027836117ad565b915061136f82611a91565b604082019050919050565b60006113876036836117ad565b915061139282611ae0565b604082019050919050565b60006113aa600083611791565b91506113b582611b2f565b600082019050919050565b60006060830160008301516113d86000860182611150565b50602083015184820360208601526113f0828261129f565b9150506040830151611405604086018261143f565b508091505092915050565b6040820160008201516114266000850182611150565b506020820151611439602085018261143f565b50505050565b61144881611846565b82525050565b61145781611846565b82525050565b60006114688261139d565b9150819050919050565b6000602082019050611487600083018461115f565b92915050565b600060208201905081810360008301526114a7818461116e565b905092915050565b600060208201905081810360008301526114c981846111cc565b905092915050565b600060208201905081810360008301526114eb8184611241565b905092915050565b6000602082019050818103600083015261150d81846112d8565b905092915050565b6000604082019050818103600083015261152f81856112d8565b905061153e602083018461115f565b9392505050565b6000606082019050818103600083015261155f81866112d8565b905061156e602083018561115f565b818103604083015261158081846112d8565b9050949350505050565b600060408201905081810360008301526115a481856112d8565b90506115b3602083018461144e565b9392505050565b600060208201905081810360008301526115d381611311565b9050919050565b600060208201905081810360008301526115f381611334565b9050919050565b6000602082019050818103600083015261161381611357565b9050919050565b600060208201905081810360008301526116338161137a565b9050919050565b600060208201905061164f600083018461144e565b92915050565b600060408201905061166a600083018561144e565b818103602083015261167c81846112d8565b90509392505050565b600061168f6116a0565b905061169b82826118c4565b919050565b6000604051905090565b600067ffffffffffffffff8211156116c5576116c46119b3565b5b6116ce826119e2565b9050602081019050919050565b6000819050602082019050919050565b6000819050602082019050919050565b6000819050602082019050919050565b600081519050919050565b600081519050919050565b600081519050919050565b600081519050919050565b6000602082019050919050565b6000602082019050919050565b6000602082019050919050565b600082825260208201905092915050565b600082825260208201905092915050565b600082825260208201905092915050565b600081905092915050565b600082825260208201905092915050565b600082825260208201905092915050565b60006117c982611846565b91506117d483611846565b9250827fffffffffffffffffffffffffffffffffffffffffffffffffffffffffffffffff0382111561180957611808611926565b5b828201905092915050565b600061181f82611826565b9050919050565b600073ffffffffffffffffffffffffffffffffffffffff82169050919050565b6000819050919050565b82818337600083830152505050565b60005b8381101561187d578082015181840152602081019050611862565b8381111561188c576000848401525b50505050565b600060028204905060018216806118aa57607f821691505b602082108114156118be576118bd611984565b5b50919050565b6118cd826119e2565b810181811067ffffffffffffffff821117156118ec576118eb6119b3565b5b80604052505050565b600061190082611846565b915061190b83611846565b92508261191b5761191a611955565b5b828206905092915050565b7f4e487b7100000000000000000000000000000000000000000000000000000000600052601160045260246000fd5b7f4e487b7100000000000000000000000000000000000000000000000000000000600052601260045260246000fd5b7f4e487b7100000000000000000000000000000000000000000000000000000000600052602260045260246000fd5b7f4e487b7100000000000000000000000000000000000000000000000000000000600052604160045260246000fd5b6000601f19601f8301169050919050565b7f506c65617365205761697420666f72203330207365636f6e6473206265666f7260008201527f6520776176696e6720616761696e2e0000000000000000000000000000000000602082015250565b7f547279696e6720746f207769746864726177206d6f7265206d6f6e657920746860008201527f616e2074686520636f6e7472616374206861732e000000000000000000000000602082015250565b7f4661696c656420746f207769746864726177206d6f6e65792066726f6d20636f60008201527f6e74726163742e00000000000000000000000000000000000000000000000000602082015250565b7f506c65617365205761697420666f72203330207365636f6e6473206265666f7260008201527f652073656e64696e6720612068756720616761696e2e00000000000000000000602082015250565b50565b611b3b81611814565b8114611b4657600080fd5b50565b611b5281611846565b8114611b5d57600080fd5b5056fea2646970667358221220918bee813aa73c2a56c81088ee543cfd3e747f218cb0a52024c0e99961ce691064736f6c63430008040033",
  "linkReferences": {},
  "deployedLinkReferences": {}
}