{
  "_format": "hh-sol-artifact-1",
  "contractName": "WavePortal",
  "sourceName": "contracts/WavePortals.sol",
  "abi": [
    {
      "inputs": [],
      "stateMutability": "payable",
      "type": "constructor"
    },
    {
      "anonymous": false,
      "inputs": [
        {
          "indexed": true,
          "internalType": "address",
          "name": "from",
          "type": "address"
        },
        {
          "indexed": false,
          "internalType": "uint256",
          "name": "timestamp",
          "type": "uint256"
        },
        {
          "indexed": false,
          "internalType": "string",
          "name": "message",
          "type": "string"
        }
      ],
      "name": "NewHug",
      "type": "event"
    },
    {
      "anonymous": false,
      "inputs": [
        {
          "indexed": true,
          "internalType": "address",
          "name": "from",
          "type": "address"
        },
        {
          "indexed": false,
          "internalType": "uint256",
          "name": "timestamp",
          "type": "uint256"
        }
      ],
      "name": "NewWave",
      "type": "event"
    },
    {
      "inputs": [],
      "name": "getAllHugs",
      "outputs": [
        {
          "components": [
            {
              "internalType": "address",
              "name": "hugger",
              "type": "address"
            },
            {
              "internalType": "string",
              "name": "message",
              "type": "string"
            },
            {
              "internalType": "uint256",
              "name": "timestamp",
              "type": "uint256"
            }
          ],
          "internalType": "struct WavePortal.Hug[]",
          "name": "",
          "type": "tuple[]"
        }
      ],
      "stateMutability": "view",
      "type": "function"
    },
    {
      "inputs": [],
      "name": "getAllSendersAddress",
      "outputs": [
        {
          "internalType": "address[]",
          "name": "",
          "type": "address[]"
        }
      ],
      "stateMutability": "view",
      "type": "function"
    },
    {
      "inputs": [],
      "name": "getAllWaves",
      "outputs": [
        {
          "components": [
            {
              "internalType": "address",
              "name": "waver",
              "type": "address"
            },
            {
              "internalType": "uint256",
              "name": "timestamp",
              "type": "uint256"
            }
          ],
          "internalType": "struct WavePortal.Wave[]",
          "name": "",
          "type": "tuple[]"
        }
      ],
      "stateMutability": "view",
      "type": "function"
    },
    {
      "inputs": [],
      "name": "getTotalHugs",
      "outputs": [
        {
          "internalType": "uint256",
          "name": "",
          "type": "uint256"
        }
      ],
      "stateMutability": "view",
      "type": "function"
    },
    {
      "inputs": [],
      "name": "getTotalWaves",
      "outputs": [
        {
          "internalType": "uint256",
          "name": "",
          "type": "uint256"
        }
      ],
      "stateMutability": "view",
      "type": "function"
    },
    {
      "inputs": [
        {
          "internalType": "string",
          "name": "_message",
          "type": "string"
        }
      ],
      "name": "hug",
      "outputs": [],
      "stateMutability": "nonpayable",
      "type": "function"
    },
    {
      "inputs": [
        {
          "internalType": "address",
          "name": "",
          "type": "address"
        }
      ],
      "name": "lastSentHugAt",
      "outputs": [
        {
          "internalType": "uint256",
          "name": "",
          "type": "uint256"
        }
      ],
      "stateMutability": "view",
      "type": "function"
    },
    {
      "inputs": [
        {
          "internalType": "address",
          "name": "",
          "type": "address"
        }
      ],
      "name": "lastWavedAt",
      "outputs": [
        {
          "internalType": "uint256",
          "name": "",
          "type": "uint256"
        }
      ],
      "stateMutability": "view",
      "type": "function"
    },
    {
      "inputs": [],
      "name": "senderAddress",
      "outputs": [],
      "stateMutability": "nonpayable",
      "type": "function"
    },
    {
      "inputs": [
        {
          "internalType": "uint256",
          "name": "",
          "type": "uint256"
        }
      ],
      "name": "userAddresses",
      "outputs": [
        {
          "internalType": "address",
          "name": "",
          "type": "address"
        }
      ],
      "stateMutability": "view",
      "type": "function"
    },
    {
      "inputs": [],
      "name": "wave",
      "outputs": [],
      "stateMutability": "nonpayable",
      "type": "function"
    }
  ],
  "bytecode": "0x60806040526200004f6040518060400160405280601981526020017f57652068617665206265656e20636f6e737472756374656421000000000000008152506200007760201b62000cad1760201c565b606444426200005f9190620001c4565b6200006b919062000261565b60058190555062000308565b62000117816040516024016200008e919062000184565b6040516020818303038152906040527f41304fac000000000000000000000000000000000000000000000000000000007bffffffffffffffffffffffffffffffffffffffffffffffffffffffff19166020820180517bffffffffffffffffffffffffffffffffffffffffffffffffffffffff83818316178352505050506200011a60201b60201c565b50565b60008151905060006a636f6e736f6c652e6c6f679050602083016000808483855afa5050505050565b60006200015082620001a8565b6200015c8185620001b3565b93506200016e8185602086016200022b565b6200017981620002f7565b840191505092915050565b60006020820190508181036000830152620001a0818462000143565b905092915050565b600081519050919050565b600082825260208201905092915050565b6000620001d18262000221565b9150620001de8362000221565b9250827fffffffffffffffffffffffffffffffffffffffffffffffffffffffffffffffff0382111562000216576200021562000299565b5b828201905092915050565b6000819050919050565b60005b838110156200024b5780820151818401526020810190506200022e565b838111156200025b576000848401525b50505050565b60006200026e8262000221565b91506200027b8362000221565b9250826200028e576200028d620002c8565b5b828206905092915050565b7f4e487b7100000000000000000000000000000000000000000000000000000000600052601160045260246000fd5b7f4e487b7100000000000000000000000000000000000000000000000000000000600052601260045260246000fd5b6000601f19601f8301169050919050565b611ae080620003186000396000f3fe608060405234801561001057600080fd5b50600436106100a95760003560e01c8063933026ca11610071578063933026ca1461012e578063990ae4a91461014c5780639a2cdc081461017c578063a42a46631461019a578063a46f5992146101ca578063bd43a908146101e6576100a9565b806342220881146100ae5780634fc84791146100cc578063502c9bd5146100d6578063677f0c21146101065780636fe15b4414610124575b600080fd5b6100b6610204565b6040516100c391906115f9565b60405180910390f35b6100d461024f565b005b6100f060048036038101906100eb91906110e5565b6102f2565b6040516100fd9190611451565b60405180910390f35b61010e610331565b60405161011b919061148e565b60405180910390f35b61012c610482565b005b6101366106a5565b604051610143919061146c565b60405180910390f35b6101666004803603810190610161919061107b565b610777565b60405161017391906115f9565b60405180910390f35b61018461078f565b60405161019191906115f9565b60405180910390f35b6101b460048036038101906101af919061107b565b6107da565b6040516101c191906115f9565b60405180910390f35b6101e460048036038101906101df91906110a4565b6107f2565b005b6101ee610bee565b6040516101fb91906114b0565b60405180910390f35b60006102476040518060400160405280601681526020017f5765206861766520256420746f74616c20687567732100000000000000000000815250600154610d46565b600154905090565b6002339080600181540180825580915050600190039060005260206000200160009091909190916101000a81548173ffffffffffffffffffffffffffffffffffffffff021916908373ffffffffffffffffffffffffffffffffffffffff1602179055506102f06040518060400160405280601e81526020017f73656e646572206164647265737320686173206265656e206164646564210000815250610cad565b565b6002818154811061030257600080fd5b906000526020600020016000915054906101000a900473ffffffffffffffffffffffffffffffffffffffff1681565b60606004805480602002602001604051908101604052809291908181526020016000905b8282101561047957838290600052602060002090600302016040518060600160405290816000820160009054906101000a900473ffffffffffffffffffffffffffffffffffffffff1673ffffffffffffffffffffffffffffffffffffffff1673ffffffffffffffffffffffffffffffffffffffff1681526020016001820180546103de90611851565b80601f016020809104026020016040519081016040528092919081815260200182805461040a90611851565b80156104575780601f1061042c57610100808354040283529160200191610457565b820191906000526020600020905b81548152906001019060200180831161043a57829003601f168201915b5050505050815260200160028201548152505081526020019060010190610355565b50505050905090565b6001600080828254610494919061177d565b925050819055506104da6040518060400160405280600881526020017f257320776176656400000000000000000000000000000000000000000000000081525033610de2565b42610384600760003373ffffffffffffffffffffffffffffffffffffffff1673ffffffffffffffffffffffffffffffffffffffff16815260200190815260200160002054610528919061177d565b10610568576040517f08c379a000000000000000000000000000000000000000000000000000000000815260040161055f906115d9565b60405180910390fd5b42600760003373ffffffffffffffffffffffffffffffffffffffff1673ffffffffffffffffffffffffffffffffffffffff16815260200190815260200160002081905550600360405180604001604052803373ffffffffffffffffffffffffffffffffffffffff16815260200142815250908060018154018082558091505060019003906000526020600020906002020160009091909190915060008201518160000160006101000a81548173ffffffffffffffffffffffffffffffffffffffff021916908373ffffffffffffffffffffffffffffffffffffffff1602179055506020820151816001015550503373ffffffffffffffffffffffffffffffffffffffff167fd4039eae27a8bdb2161befb9f8627b7c1427c2515e32d699b7dc252416e719cd4260405161069b91906115f9565b60405180910390a2565b60606106eb6040518060400160405280601a81526020017f576520686176652025642073656e646572732061646472657373000000000000815250600280549050610d46565b600280548060200260200160405190810160405280929190818152602001828054801561076d57602002820191906000526020600020905b8160009054906101000a900473ffffffffffffffffffffffffffffffffffffffff1673ffffffffffffffffffffffffffffffffffffffff1681526020019060010190808311610723575b5050505050905090565b60066020528060005260406000206000915090505481565b60006107d26040518060400160405280601781526020017f5765206861766520256420746f74616c20776176657321000000000000000000815250600054610d46565b600054905090565b60076020528060005260406000206000915090505481565b6001806000828254610804919061177d565b9250508190555061084b6040518060400160405280601781526020017f25732068756767656420772f206d6573736167652025730000000000000000008152503383610e7e565b42610384600660003373ffffffffffffffffffffffffffffffffffffffff1673ffffffffffffffffffffffffffffffffffffffff16815260200190815260200160002054610899919061177d565b106108d9576040517f08c379a00000000000000000000000000000000000000000000000000000000081526004016108d0906115d9565b60405180910390fd5b42600660003373ffffffffffffffffffffffffffffffffffffffff1673ffffffffffffffffffffffffffffffffffffffff16815260200190815260200160002081905550600460405180606001604052803373ffffffffffffffffffffffffffffffffffffffff16815260200183815260200142815250908060018154018082558091505060019003906000526020600020906003020160009091909190915060008201518160000160006101000a81548173ffffffffffffffffffffffffffffffffffffffff021916908373ffffffffffffffffffffffffffffffffffffffff16021790555060208201518160010190805190602001906109dc929190610f46565b50604082015181600201555050606460055444426109fa919061177d565b610a04919061177d565b610a0e91906118b4565b600581905550610a556040518060400160405280601681526020017f52616e646f6d20232067656e6572617465643a20256400000000000000000000815250600554610d46565b603260055411610b9b57610a9e6040518060400160405280600781526020017f257320776f6e210000000000000000000000000000000000000000000000000081525033610de2565b6000655af3107a4000905047811115610aec576040517f08c379a0000000000000000000000000000000000000000000000000000000008152600401610ae390611599565b60405180910390fd5b60003373ffffffffffffffffffffffffffffffffffffffff1682604051610b129061143c565b60006040518083038185875af1925050503d8060008114610b4f576040519150601f19603f3d011682016040523d82523d6000602084013e610b54565b606091505b5050905080610b98576040517f08c379a0000000000000000000000000000000000000000000000000000000008152600401610b8f906115b9565b60405180910390fd5b50505b3373ffffffffffffffffffffffffffffffffffffffff167fa5963c21658af7cb8ea8def690d3353743bf24a79c848dc45252fcb66042f4b14283604051610be3929190611614565b60405180910390a250565b60606003805480602002602001604051908101604052809291908181526020016000905b82821015610ca457838290600052602060002090600202016040518060400160405290816000820160009054906101000a900473ffffffffffffffffffffffffffffffffffffffff1673ffffffffffffffffffffffffffffffffffffffff1673ffffffffffffffffffffffffffffffffffffffff16815260200160018201548152505081526020019060010190610c12565b50505050905090565b610d4381604051602401610cc191906114d2565b6040516020818303038152906040527f41304fac000000000000000000000000000000000000000000000000000000007bffffffffffffffffffffffffffffffffffffffffffffffffffffffff19166020820180517bffffffffffffffffffffffffffffffffffffffffffffffffffffffff8381831617835250505050610f1d565b50565b610dde8282604051602401610d5c929190611569565b6040516020818303038152906040527f9710a9d0000000000000000000000000000000000000000000000000000000007bffffffffffffffffffffffffffffffffffffffffffffffffffffffff19166020820180517bffffffffffffffffffffffffffffffffffffffffffffffffffffffff8381831617835250505050610f1d565b5050565b610e7a8282604051602401610df89291906114f4565b6040516020818303038152906040527f319af333000000000000000000000000000000000000000000000000000000007bffffffffffffffffffffffffffffffffffffffffffffffffffffffff19166020820180517bffffffffffffffffffffffffffffffffffffffffffffffffffffffff8381831617835250505050610f1d565b5050565b610f18838383604051602401610e9693929190611524565b6040516020818303038152906040527fe0e9ad4f000000000000000000000000000000000000000000000000000000007bffffffffffffffffffffffffffffffffffffffffffffffffffffffff19166020820180517bffffffffffffffffffffffffffffffffffffffffffffffffffffffff8381831617835250505050610f1d565b505050565b60008151905060006a636f6e736f6c652e6c6f679050602083016000808483855afa5050505050565b828054610f5290611851565b90600052602060002090601f016020900481019282610f745760008555610fbb565b82601f10610f8d57805160ff1916838001178555610fbb565b82800160010185558215610fbb579182015b82811115610fba578251825591602001919060010190610f9f565b5b509050610fc89190610fcc565b5090565b5b80821115610fe5576000816000905550600101610fcd565b5090565b6000610ffc610ff784611669565b611644565b90508281526020810184848401111561101457600080fd5b61101f84828561180f565b509392505050565b60008135905061103681611a7c565b92915050565b600082601f83011261104d57600080fd5b813561105d848260208601610fe9565b91505092915050565b60008135905061107581611a93565b92915050565b60006020828403121561108d57600080fd5b600061109b84828501611027565b91505092915050565b6000602082840312156110b657600080fd5b600082013567ffffffffffffffff8111156110d057600080fd5b6110dc8482850161103c565b91505092915050565b6000602082840312156110f757600080fd5b600061110584828501611066565b91505092915050565b600061111a8383611152565b60208301905092915050565b6000611132838361139f565b905092915050565b600061114683836113ef565b60408301905092915050565b61115b816117d3565b82525050565b61116a816117d3565b82525050565b600061117b826116ca565b611185818561171d565b93506111908361169a565b8060005b838110156111c15781516111a8888261110e565b97506111b3836116f6565b925050600181019050611194565b5085935050505092915050565b60006111d9826116d5565b6111e3818561172e565b9350836020820285016111f5856116aa565b8060005b8581101561123157848403895281516112128582611126565b945061121d83611703565b925060208a019950506001810190506111f9565b50829750879550505050505092915050565b600061124e826116e0565b611258818561173f565b9350611263836116ba565b8060005b8381101561129457815161127b888261113a565b975061128683611710565b925050600181019050611267565b5085935050505092915050565b60006112ac826116eb565b6112b6818561175b565b93506112c681856020860161181e565b6112cf816119a1565b840191505092915050565b60006112e5826116eb565b6112ef818561176c565b93506112ff81856020860161181e565b611308816119a1565b840191505092915050565b600061132060348361176c565b915061132b826119b2565b604082019050919050565b600061134360278361176c565b915061134e82611a01565b604082019050919050565b6000611366600083611750565b915061137182611a50565b600082019050919050565b600061138960088361176c565b915061139482611a53565b602082019050919050565b60006060830160008301516113b76000860182611152565b50602083015184820360208601526113cf82826112a1565b91505060408301516113e4604086018261141e565b508091505092915050565b6040820160008201516114056000850182611152565b506020820151611418602085018261141e565b50505050565b61142781611805565b82525050565b61143681611805565b82525050565b600061144782611359565b9150819050919050565b60006020820190506114666000830184611161565b92915050565b600060208201905081810360008301526114868184611170565b905092915050565b600060208201905081810360008301526114a881846111ce565b905092915050565b600060208201905081810360008301526114ca8184611243565b905092915050565b600060208201905081810360008301526114ec81846112da565b905092915050565b6000604082019050818103600083015261150e81856112da565b905061151d6020830184611161565b9392505050565b6000606082019050818103600083015261153e81866112da565b905061154d6020830185611161565b818103604083015261155f81846112da565b9050949350505050565b6000604082019050818103600083015261158381856112da565b9050611592602083018461142d565b9392505050565b600060208201905081810360008301526115b281611313565b9050919050565b600060208201905081810360008301526115d281611336565b9050919050565b600060208201905081810360008301526115f28161137c565b9050919050565b600060208201905061160e600083018461142d565b92915050565b6000604082019050611629600083018561142d565b818103602083015261163b81846112da565b90509392505050565b600061164e61165f565b905061165a8282611883565b919050565b6000604051905090565b600067ffffffffffffffff82111561168457611683611972565b5b61168d826119a1565b9050602081019050919050565b6000819050602082019050919050565b6000819050602082019050919050565b6000819050602082019050919050565b600081519050919050565b600081519050919050565b600081519050919050565b600081519050919050565b6000602082019050919050565b6000602082019050919050565b6000602082019050919050565b600082825260208201905092915050565b600082825260208201905092915050565b600082825260208201905092915050565b600081905092915050565b600082825260208201905092915050565b600082825260208201905092915050565b600061178882611805565b915061179383611805565b9250827fffffffffffffffffffffffffffffffffffffffffffffffffffffffffffffffff038211156117c8576117c76118e5565b5b828201905092915050565b60006117de826117e5565b9050919050565b600073ffffffffffffffffffffffffffffffffffffffff82169050919050565b6000819050919050565b82818337600083830152505050565b60005b8381101561183c578082015181840152602081019050611821565b8381111561184b576000848401525b50505050565b6000600282049050600182168061186957607f821691505b6020821081141561187d5761187c611943565b5b50919050565b61188c826119a1565b810181811067ffffffffffffffff821117156118ab576118aa611972565b5b80604052505050565b60006118bf82611805565b91506118ca83611805565b9250826118da576118d9611914565b5b828206905092915050565b7f4e487b7100000000000000000000000000000000000000000000000000000000600052601160045260246000fd5b7f4e487b7100000000000000000000000000000000000000000000000000000000600052601260045260246000fd5b7f4e487b7100000000000000000000000000000000000000000000000000000000600052602260045260246000fd5b7f4e487b7100000000000000000000000000000000000000000000000000000000600052604160045260246000fd5b6000601f19601f8301169050919050565b7f547279696e6720746f207769746864726177206d6f7265206d6f6e657920746860008201527f616e2074686520636f6e7472616374206861732e000000000000000000000000602082015250565b7f4661696c656420746f207769746864726177206d6f6e65792066726f6d20636f60008201527f6e74726163742e00000000000000000000000000000000000000000000000000602082015250565b50565b7f576169742031356d000000000000000000000000000000000000000000000000600082015250565b611a85816117d3565b8114611a9057600080fd5b50565b611a9c81611805565b8114611aa757600080fd5b5056fea2646970667358221220aca23db5b964a9609de1fcd0df979c309d7670b09f0a4a16da0d15a189cbf32e64736f6c63430008040033",
  "linkReferences": {},
  "deployedLinkReferences": {}
}